{
  "contractName": "TestUniswapLiquidity",
  "abi": [
    {
      "anonymous": false,
      "inputs": [
        {
          "indexed": false,
          "internalType": "string",
          "name": "message",
          "type": "string"
        },
        {
          "indexed": false,
          "internalType": "uint256",
          "name": "val",
          "type": "uint256"
        }
      ],
      "name": "Log",
      "type": "event"
    },
    {
      "inputs": [
        {
          "internalType": "address",
          "name": "_tokenA",
          "type": "address"
        },
        {
          "internalType": "address",
          "name": "_tokenB",
          "type": "address"
        },
        {
          "internalType": "uint256",
          "name": "_amountA",
          "type": "uint256"
        },
        {
          "internalType": "uint256",
          "name": "_amountB",
          "type": "uint256"
        }
      ],
      "name": "addLiquidity",
      "outputs": [],
      "stateMutability": "nonpayable",
      "type": "function"
    },
    {
      "inputs": [
        {
          "internalType": "address",
          "name": "_tokenA",
          "type": "address"
        },
        {
          "internalType": "address",
          "name": "_tokenB",
          "type": "address"
        }
      ],
      "name": "getLiquidityAmount",
      "outputs": [
        {
          "internalType": "uint256",
          "name": "_liquidityAdddress",
          "type": "uint256"
        }
      ],
      "stateMutability": "view",
      "type": "function",
      "constant": true
    },
    {
      "inputs": [
        {
          "internalType": "address",
          "name": "_tokenA",
          "type": "address"
        },
        {
          "internalType": "address",
          "name": "_tokenB",
          "type": "address"
        }
      ],
      "name": "getLiquidityAddress",
      "outputs": [
        {
          "internalType": "address",
          "name": "_liquidityAdddress",
          "type": "address"
        }
      ],
      "stateMutability": "view",
      "type": "function",
      "constant": true
    },
    {
      "inputs": [
        {
          "internalType": "address",
          "name": "_tokenA",
          "type": "address"
        },
        {
          "internalType": "address",
          "name": "_tokenB",
          "type": "address"
        }
      ],
      "name": "removeLiquidity",
      "outputs": [],
      "stateMutability": "nonpayable",
      "type": "function"
    }
  ],
  "bytecode": "0x608060405234801561001057600080fd5b50610f5e806100206000396000f3fe608060405234801561001057600080fd5b506004361061004c5760003560e01c8063096b8843146100515780639cf38f7c14610081578063cf6c62ea1461009d578063d9f953c4146100b9575b600080fd5b61006b60048036038101906100669190610941565b6100e9565b604051610078919061099a565b60405180910390f35b61009b60048036038101906100969190610941565b610201565b005b6100b760048036038101906100b291906109e1565b6104bf565b005b6100d360048036038101906100ce9190610941565b61083f565b6040516100e09190610a57565b60405180910390f35b600080735c69bee701ef814a2b6a3edd4b1652cb9cc5aa6f73ffffffffffffffffffffffffffffffffffffffff1663e6a4390585856040518363ffffffff1660e01b815260040161013b929190610a72565b602060405180830381865afa158015610158573d6000803e3d6000fd5b505050506040513d601f19601f8201168201806040525081019061017c9190610ab0565b90508073ffffffffffffffffffffffffffffffffffffffff166370a08231306040518263ffffffff1660e01b81526004016101b79190610a57565b602060405180830381865afa1580156101d4573d6000803e3d6000fd5b505050506040513d601f19601f820116820180604052508101906101f89190610af2565b91505092915050565b6000735c69bee701ef814a2b6a3edd4b1652cb9cc5aa6f73ffffffffffffffffffffffffffffffffffffffff1663e6a4390584846040518363ffffffff1660e01b8152600401610252929190610a72565b602060405180830381865afa15801561026f573d6000803e3d6000fd5b505050506040513d601f19601f820116820180604052508101906102939190610ab0565b905060008173ffffffffffffffffffffffffffffffffffffffff166370a08231306040518263ffffffff1660e01b81526004016102d09190610a57565b602060405180830381865afa1580156102ed573d6000803e3d6000fd5b505050506040513d601f19601f820116820180604052508101906103119190610af2565b90508173ffffffffffffffffffffffffffffffffffffffff1663095ea7b3737a250d5630b4cf539739df2c5dacb4c659f2488d836040518363ffffffff1660e01b8152600401610362929190610b1f565b6020604051808303816000875af1158015610381573d6000803e3d6000fd5b505050506040513d601f19601f820116820180604052508101906103a59190610b80565b50600080737a250d5630b4cf539739df2c5dacb4c659f2488d73ffffffffffffffffffffffffffffffffffffffff1663baa2abde87878660018030426040518863ffffffff1660e01b81526004016104039796959493929190610bf2565b60408051808303816000875af1158015610421573d6000803e3d6000fd5b505050506040513d601f19601f820116820180604052508101906104459190610c61565b915091507fdd970dd9b5bfe707922155b058a407655cb18288b807e2216442bca8ad83d6b5826040516104789190610cfe565b60405180910390a17fdd970dd9b5bfe707922155b058a407655cb18288b807e2216442bca8ad83d6b5816040516104af9190610d78565b60405180910390a1505050505050565b8373ffffffffffffffffffffffffffffffffffffffff166323b872dd3330856040518463ffffffff1660e01b81526004016104fc93929190610da6565b6020604051808303816000875af115801561051b573d6000803e3d6000fd5b505050506040513d601f19601f8201168201806040525081019061053f9190610b80565b508273ffffffffffffffffffffffffffffffffffffffff166323b872dd3330846040518463ffffffff1660e01b815260040161057d93929190610da6565b6020604051808303816000875af115801561059c573d6000803e3d6000fd5b505050506040513d601f19601f820116820180604052508101906105c09190610b80565b508373ffffffffffffffffffffffffffffffffffffffff1663095ea7b3737a250d5630b4cf539739df2c5dacb4c659f2488d846040518363ffffffff1660e01b8152600401610610929190610b1f565b6020604051808303816000875af115801561062f573d6000803e3d6000fd5b505050506040513d601f19601f820116820180604052508101906106539190610b80565b508273ffffffffffffffffffffffffffffffffffffffff1663095ea7b3737a250d5630b4cf539739df2c5dacb4c659f2488d836040518363ffffffff1660e01b81526004016106a3929190610b1f565b6020604051808303816000875af11580156106c2573d6000803e3d6000fd5b505050506040513d601f19601f820116820180604052508101906106e69190610b80565b506000806000737a250d5630b4cf539739df2c5dacb4c659f2488d73ffffffffffffffffffffffffffffffffffffffff1663e8e337008888888860018030426040518963ffffffff1660e01b8152600401610748989796959493929190610ddd565b6060604051808303816000875af1158015610767573d6000803e3d6000fd5b505050506040513d601f19601f8201168201806040525081019061078b9190610e5b565b9250925092507fdd970dd9b5bfe707922155b058a407655cb18288b807e2216442bca8ad83d6b5836040516107c09190610cfe565b60405180910390a17fdd970dd9b5bfe707922155b058a407655cb18288b807e2216442bca8ad83d6b5826040516107f79190610d78565b60405180910390a17fdd970dd9b5bfe707922155b058a407655cb18288b807e2216442bca8ad83d6b58160405161082e9190610efa565b60405180910390a150505050505050565b600080735c69bee701ef814a2b6a3edd4b1652cb9cc5aa6f73ffffffffffffffffffffffffffffffffffffffff1663e6a4390585856040518363ffffffff1660e01b8152600401610891929190610a72565b602060405180830381865afa1580156108ae573d6000803e3d6000fd5b505050506040513d601f19601f820116820180604052508101906108d29190610ab0565b90508091505092915050565b600080fd5b600073ffffffffffffffffffffffffffffffffffffffff82169050919050565b600061090e826108e3565b9050919050565b61091e81610903565b811461092957600080fd5b50565b60008135905061093b81610915565b92915050565b60008060408385031215610958576109576108de565b5b60006109668582860161092c565b92505060206109778582860161092c565b9150509250929050565b6000819050919050565b61099481610981565b82525050565b60006020820190506109af600083018461098b565b92915050565b6109be81610981565b81146109c957600080fd5b50565b6000813590506109db816109b5565b92915050565b600080600080608085870312156109fb576109fa6108de565b5b6000610a098782880161092c565b9450506020610a1a8782880161092c565b9350506040610a2b878288016109cc565b9250506060610a3c878288016109cc565b91505092959194509250565b610a5181610903565b82525050565b6000602082019050610a6c6000830184610a48565b92915050565b6000604082019050610a876000830185610a48565b610a946020830184610a48565b9392505050565b600081519050610aaa81610915565b92915050565b600060208284031215610ac657610ac56108de565b5b6000610ad484828501610a9b565b91505092915050565b600081519050610aec816109b5565b92915050565b600060208284031215610b0857610b076108de565b5b6000610b1684828501610add565b91505092915050565b6000604082019050610b346000830185610a48565b610b41602083018461098b565b9392505050565b60008115159050919050565b610b5d81610b48565b8114610b6857600080fd5b50565b600081519050610b7a81610b54565b92915050565b600060208284031215610b9657610b956108de565b5b6000610ba484828501610b6b565b91505092915050565b6000819050919050565b6000819050919050565b6000610bdc610bd7610bd284610bad565b610bb7565b610981565b9050919050565b610bec81610bc1565b82525050565b600060e082019050610c07600083018a610a48565b610c146020830189610a48565b610c21604083018861098b565b610c2e6060830187610be3565b610c3b6080830186610be3565b610c4860a0830185610a48565b610c5560c083018461098b565b98975050505050505050565b60008060408385031215610c7857610c776108de565b5b6000610c8685828601610add565b9250506020610c9785828601610add565b9150509250929050565b600082825260208201905092915050565b7f616d6f756e744100000000000000000000000000000000000000000000000000600082015250565b6000610ce8600783610ca1565b9150610cf382610cb2565b602082019050919050565b60006040820190508181036000830152610d1781610cdb565b9050610d26602083018461098b565b92915050565b7f616d6f756e744200000000000000000000000000000000000000000000000000600082015250565b6000610d62600783610ca1565b9150610d6d82610d2c565b602082019050919050565b60006040820190508181036000830152610d9181610d55565b9050610da0602083018461098b565b92915050565b6000606082019050610dbb6000830186610a48565b610dc86020830185610a48565b610dd5604083018461098b565b949350505050565b600061010082019050610df3600083018b610a48565b610e00602083018a610a48565b610e0d604083018961098b565b610e1a606083018861098b565b610e276080830187610be3565b610e3460a0830186610be3565b610e4160c0830185610a48565b610e4e60e083018461098b565b9998505050505050505050565b600080600060608486031215610e7457610e736108de565b5b6000610e8286828701610add565b9350506020610e9386828701610add565b9250506040610ea486828701610add565b9150509250925092565b7f6c69717569646974790000000000000000000000000000000000000000000000600082015250565b6000610ee4600983610ca1565b9150610eef82610eae565b602082019050919050565b60006040820190508181036000830152610f1381610ed7565b9050610f22602083018461098b565b9291505056fea2646970667358221220f32e8d8d692c7a0ebc58529dbb3d2e7cee865700aacfa03d80bd98902037ba3564736f6c63430008100033",
  "immutableReferences": {},
  "source": "// SPDX-License-Identifier: MIT\npragma solidity ^0.8;\n\nimport \"./Uniswap.sol\";\n\ninterface IERC20 {\n    /**\n     * @dev Emitted when `value` tokens are moved from one account (`from`) to\n     * another (`to`).\n     *\n     * Note that `value` may be zero.\n     */\n    event Transfer(address indexed from, address indexed to, uint256 value);\n\n    /**\n     * @dev Emitted when the allowance of a `spender` for an `owner` is set by\n     * a call to {approve}. `value` is the new allowance.\n     */\n    event Approval(address indexed owner, address indexed spender, uint256 value);\n\n    /**\n     * @dev Returns the amount of tokens in existence.\n     */\n    function totalSupply() external view returns (uint256);\n\n    /**\n     * @dev Returns the amount of tokens owned by `account`.\n     */\n    function balanceOf(address account) external view returns (uint256);\n\n    /**\n     * @dev Moves `amount` tokens from the caller's account to `to`.\n     *\n     * Returns a boolean value indicating whether the operation succeeded.\n     *\n     * Emits a {Transfer} event.\n     */\n    function transfer(address to, uint256 amount) external returns (bool);\n\n    /**\n     * @dev Returns the remaining number of tokens that `spender` will be\n     * allowed to spend on behalf of `owner` through {transferFrom}. This is\n     * zero by default.\n     *\n     * This value changes when {approve} or {transferFrom} are called.\n     */\n    function allowance(address owner, address spender) external view returns (uint256);\n\n    /**\n     * @dev Sets `amount` as the allowance of `spender` over the caller's tokens.\n     *\n     * Returns a boolean value indicating whether the operation succeeded.\n     *\n     * IMPORTANT: Beware that changing an allowance with this method brings the risk\n     * that someone may use both the old and the new allowance by unfortunate\n     * transaction ordering. One possible solution to mitigate this race\n     * condition is to first reduce the spender's allowance to 0 and set the\n     * desired value afterwards:\n     * https://github.com/ethereum/EIPs/issues/20#issuecomment-263524729\n     *\n     * Emits an {Approval} event.\n     */\n    function approve(address spender, uint256 amount) external returns (bool);\n\n    /**\n     * @dev Moves `amount` tokens from `from` to `to` using the\n     * allowance mechanism. `amount` is then deducted from the caller's\n     * allowance.\n     *\n     * Returns a boolean value indicating whether the operation succeeded.\n     *\n     * Emits a {Transfer} event.\n     */\n    function transferFrom(\n        address from,\n        address to,\n        uint256 amount\n    ) external returns (bool);\n}\n\ncontract TestUniswapLiquidity {\n  address private constant FACTORY = 0x5C69bEe701ef814a2B6a3EDD4B1652CB9cc5aA6f;\n  address private constant ROUTER = 0x7a250d5630B4cF539739dF2C5dAcb4c659F2488D;\n  address private constant WETH = 0xC02aaA39b223FE8D0A0e5C4F27eAD9083C756Cc2;\n\n  event Log(string message, uint val);\n\n  function addLiquidity(\n    address _tokenA,\n    address _tokenB,\n    uint _amountA,\n    uint _amountB\n  ) external {\n    IERC20(_tokenA).transferFrom(msg.sender, address(this), _amountA);\n    IERC20(_tokenB).transferFrom(msg.sender, address(this), _amountB);\n\n    IERC20(_tokenA).approve(ROUTER, _amountA);\n    IERC20(_tokenB).approve(ROUTER, _amountB);\n\n    (uint amountA, uint amountB, uint liquidity) =\n      IUniswapV2Router(ROUTER).addLiquidity(\n        _tokenA,\n        _tokenB,\n        _amountA,\n        _amountB,\n        1,\n        1,\n        address(this),\n        block.timestamp\n      );\n\n    emit Log(\"amountA\", amountA);\n    emit Log(\"amountB\", amountB);\n    emit Log(\"liquidity\", liquidity);\n  }\n\n  function getLiquidityAmount(address _tokenA, address _tokenB) external view returns(uint _liquidityAdddress) {\n    address pair = IUniswapV2Factory(FACTORY).getPair(_tokenA, _tokenB);\n    return IERC20(pair).balanceOf(address(this));\n  }\n\n  function getLiquidityAddress(address _tokenA, address _tokenB) external view returns(address _liquidityAdddress) {\n    address pair = IUniswapV2Factory(FACTORY).getPair(_tokenA, _tokenB);\n    return pair;\n  }\n\n  function removeLiquidity(address _tokenA, address _tokenB) external {\n    address pair = IUniswapV2Factory(FACTORY).getPair(_tokenA, _tokenB);\n\n    uint liquidity = IERC20(pair).balanceOf(address(this));\n    IERC20(pair).approve(ROUTER, liquidity);\n\n    (uint amountA, uint amountB) =\n      IUniswapV2Router(ROUTER).removeLiquidity(\n        _tokenA,\n        _tokenB,\n        liquidity,\n        1,\n        1,\n        address(this),\n        block.timestamp\n      );\n\n    emit Log(\"amountA\", amountA);\n    emit Log(\"amountB\", amountB);\n  }\n}",
  "sourcePath": "/Users/leefaria/code/reprod/2022/09/02/yieldfarm/contracts/UniSwapAddLiquidity.sol",
  "compiler": {
    "name": "solc",
    "version": "0.8.16+commit.07a7930e.Emscripten.clang"
  },
  "schemaVersion": "3.4.7",
  "updatedAt": "2022-09-15T07:10:55.878Z",
  "networkType": "ethereum",
  "devdoc": {
    "kind": "dev",
    "methods": {},
    "version": 1
  },
  "userdoc": {
    "kind": "user",
    "methods": {},
    "version": 1
  }
}